{
  "contractName": "CertificateRegistry",
  "abi": [
    {
      "inputs": [],
      "payable": false,
      "stateMutability": "nonpayable",
      "type": "constructor",
      "signature": "constructor"
    },
    {
      "anonymous": false,
      "inputs": [
        {
          "indexed": true,
          "internalType": "bytes32",
          "name": "hash",
          "type": "bytes32"
        },
        {
          "indexed": false,
          "internalType": "string",
          "name": "studentName",
          "type": "string"
        },
        {
          "indexed": false,
          "internalType": "string",
          "name": "rollNumber",
          "type": "string"
        }
      ],
      "name": "CertificateStored",
      "type": "event",
      "signature": "0x8a44c34ee5af435653a77946f6d75954c9378a3531f3fc80e83e752503e163b8"
    },
    {
      "anonymous": false,
      "inputs": [
        {
          "indexed": true,
          "internalType": "bytes32",
          "name": "hash",
          "type": "bytes32"
        },
        {
          "indexed": false,
          "internalType": "bool",
          "name": "isValid",
          "type": "bool"
        }
      ],
      "name": "CertificateVerified",
      "type": "event",
      "signature": "0xf90e61a4c773bad66132c1a585d03b6928d79554859ca2957702a47f031863bc"
    },
    {
      "constant": true,
      "inputs": [],
      "name": "admin",
      "outputs": [
        {
          "internalType": "address",
          "name": "",
          "type": "address"
        }
      ],
      "payable": false,
      "stateMutability": "view",
      "type": "function",
      "signature": "0xf851a440"
    },
    {
      "constant": true,
      "inputs": [
        {
          "internalType": "uint256",
          "name": "",
          "type": "uint256"
        }
      ],
      "name": "certificateHashes",
      "outputs": [
        {
          "internalType": "bytes32",
          "name": "",
          "type": "bytes32"
        }
      ],
      "payable": false,
      "stateMutability": "view",
      "type": "function",
      "signature": "0xa1735e71"
    },
    {
      "constant": true,
      "inputs": [
        {
          "internalType": "bytes32",
          "name": "",
          "type": "bytes32"
        }
      ],
      "name": "certificates",
      "outputs": [
        {
          "internalType": "string",
          "name": "studentName",
          "type": "string"
        },
        {
          "internalType": "string",
          "name": "rollNumber",
          "type": "string"
        },
        {
          "internalType": "string",
          "name": "course",
          "type": "string"
        },
        {
          "internalType": "string",
          "name": "institution",
          "type": "string"
        },
        {
          "internalType": "uint256",
          "name": "yearOfPassing",
          "type": "uint256"
        },
        {
          "internalType": "bytes32",
          "name": "documentHash",
          "type": "bytes32"
        },
        {
          "internalType": "uint256",
          "name": "timestamp",
          "type": "uint256"
        },
        {
          "internalType": "bool",
          "name": "isActive",
          "type": "bool"
        }
      ],
      "payable": false,
      "stateMutability": "view",
      "type": "function",
      "signature": "0x742f0688"
    },
    {
      "constant": false,
      "inputs": [
        {
          "internalType": "bytes32",
          "name": "_hash",
          "type": "bytes32"
        },
        {
          "internalType": "string",
          "name": "_studentName",
          "type": "string"
        },
        {
          "internalType": "string",
          "name": "_rollNumber",
          "type": "string"
        },
        {
          "internalType": "string",
          "name": "_course",
          "type": "string"
        },
        {
          "internalType": "string",
          "name": "_institution",
          "type": "string"
        },
        {
          "internalType": "uint256",
          "name": "_yearOfPassing",
          "type": "uint256"
        }
      ],
      "name": "storeCertificate",
      "outputs": [],
      "payable": false,
      "stateMutability": "nonpayable",
      "type": "function",
      "signature": "0x8db8952c"
    },
    {
      "constant": true,
      "inputs": [
        {
          "internalType": "bytes32",
          "name": "_hash",
          "type": "bytes32"
        }
      ],
      "name": "verifyCertificate",
      "outputs": [
        {
          "internalType": "bool",
          "name": "",
          "type": "bool"
        }
      ],
      "payable": false,
      "stateMutability": "view",
      "type": "function",
      "signature": "0x850c1768"
    },
    {
      "constant": true,
      "inputs": [
        {
          "internalType": "bytes32",
          "name": "_hash",
          "type": "bytes32"
        }
      ],
      "name": "getCertificate",
      "outputs": [
        {
          "internalType": "string",
          "name": "studentName",
          "type": "string"
        },
        {
          "internalType": "string",
          "name": "rollNumber",
          "type": "string"
        },
        {
          "internalType": "string",
          "name": "course",
          "type": "string"
        },
        {
          "internalType": "string",
          "name": "institution",
          "type": "string"
        },
        {
          "internalType": "uint256",
          "name": "yearOfPassing",
          "type": "uint256"
        },
        {
          "internalType": "bytes32",
          "name": "documentHash",
          "type": "bytes32"
        },
        {
          "internalType": "uint256",
          "name": "timestamp",
          "type": "uint256"
        },
        {
          "internalType": "bool",
          "name": "isActive",
          "type": "bool"
        }
      ],
      "payable": false,
      "stateMutability": "view",
      "type": "function",
      "signature": "0xf333fe08"
    },
    {
      "constant": false,
      "inputs": [
        {
          "internalType": "bytes32",
          "name": "_hash",
          "type": "bytes32"
        }
      ],
      "name": "deactivateCertificate",
      "outputs": [],
      "payable": false,
      "stateMutability": "nonpayable",
      "type": "function",
      "signature": "0x4b5a7c23"
    },
    {
      "constant": true,
      "inputs": [],
      "name": "getTotalCertificates",
      "outputs": [
        {
          "internalType": "uint256",
          "name": "",
          "type": "uint256"
        }
      ],
      "payable": false,
      "stateMutability": "view",
      "type": "function",
      "signature": "0x7843bb79"
    },
    {
      "constant": true,
      "inputs": [],
      "name": "getAllCertificateHashes",
      "outputs": [
        {
          "internalType": "bytes32[]",
          "name": "",
          "type": "bytes32[]"
        }
      ],
      "payable": false,
      "stateMutability": "view",
      "type": "function",
      "signature": "0x0cb07828"
    }
  ],
  "bytecode": "0x608060405234801561001057600080fd5b5033600260006101000a81548173ffffffffffffffffffffffffffffffffffffffff021916908373ffffffffffffffffffffffffffffffffffffffff1602179055506114d4806100616000396000f3fe608060405234801561001057600080fd5b50600436106100b0576000357c010000000000000000000000000000000000000000000000000000000090048063850c176811610083578063850c17681461036b5780638db8952c146103b1578063a1735e711461053d578063f333fe081461057f578063f851a4401461078a576100b0565b80630cb07828146100b55780634b5a7c2314610114578063742f0688146101425780637843bb791461034d575b600080fd5b6100bd6107d4565b6040518080602001828103825283818151815260200191508051906020019060200280838360005b838110156101005780820151818401526020810190506100e5565b505050509050019250505060405180910390f35b6101406004803603602081101561012a57600080fd5b810190808035906020019092919050505061082c565b005b61016e6004803603602081101561015857600080fd5b810190808035906020019092919050505061098e565b60405180806020018060200180602001806020018981526020018881526020018781526020018615151515815260200185810385528d818151815260200191508051906020019080838360005b838110156101d65780820151818401526020810190506101bb565b50505050905090810190601f1680156102035780820380516001836020036101000a031916815260200191505b5085810384528c818151815260200191508051906020019080838360005b8381101561023c578082015181840152602081019050610221565b50505050905090810190601f1680156102695780820380516001836020036101000a031916815260200191505b5085810383528b818151815260200191508051906020019080838360005b838110156102a2578082015181840152602081019050610287565b50505050905090810190601f1680156102cf5780820380516001836020036101000a031916815260200191505b5085810382528a818151815260200191508051906020019080838360005b838110156103085780820151818401526020810190506102ed565b50505050905090810190601f1680156103355780820380516001836020036101000a031916815260200191505b509c5050505050505050505050505060405180910390f35b610355610c43565b6040518082815260200191505060405180910390f35b6103976004803603602081101561038157600080fd5b8101908080359060200190929190505050610c50565b604051808215151515815260200191505060405180910390f35b61053b600480360360c08110156103c757600080fd5b8101908080359060200190929190803590602001906401000000008111156103ee57600080fd5b82018360208201111561040057600080fd5b8035906020019184600183028401116401000000008311171561042257600080fd5b90919293919293908035906020019064010000000081111561044357600080fd5b82018360208201111561045557600080fd5b8035906020019184600183028401116401000000008311171561047757600080fd5b90919293919293908035906020019064010000000081111561049857600080fd5b8201836020820111156104aa57600080fd5b803590602001918460018302840111640100000000831117156104cc57600080fd5b9091929391929390803590602001906401000000008111156104ed57600080fd5b8201836020820111156104ff57600080fd5b8035906020019184600183028401116401000000008311171561052157600080fd5b909192939192939080359060200190929190505050610c9d565b005b6105696004803603602081101561055357600080fd5b81019080803590602001909291905050506110b2565b6040518082815260200191505060405180910390f35b6105ab6004803603602081101561059557600080fd5b81019080803590602001909291905050506110d3565b60405180806020018060200180602001806020018981526020018881526020018781526020018615151515815260200185810385528d818151815260200191508051906020019080838360005b838110156106135780820151818401526020810190506105f8565b50505050905090810190601f1680156106405780820380516001836020036101000a031916815260200191505b5085810384528c818151815260200191508051906020019080838360005b8381101561067957808201518184015260208101905061065e565b50505050905090810190601f1680156106a65780820380516001836020036101000a031916815260200191505b5085810383528b818151815260200191508051906020019080838360005b838110156106df5780820151818401526020810190506106c4565b50505050905090810190601f16801561070c5780820380516001836020036101000a031916815260200191505b5085810382528a818151815260200191508051906020019080838360005b8381101561074557808201518184015260208101905061072a565b50505050905090810190601f1680156107725780820380516001836020036101000a031916815260200191505b509c5050505050505050505050505060405180910390f35b6107926113b2565b604051808273ffffffffffffffffffffffffffffffffffffffff1673ffffffffffffffffffffffffffffffffffffffff16815260200191505060405180910390f35b6060600180548060200260200160405190810160405280929190818152602001828054801561082257602002820191906000526020600020905b81548152602001906001019080831161080e575b5050505050905090565b600260009054906101000a900473ffffffffffffffffffffffffffffffffffffffff1673ffffffffffffffffffffffffffffffffffffffff163373ffffffffffffffffffffffffffffffffffffffff16146108d2576040517f08c379a000000000000000000000000000000000000000000000000000000000815260040180806020018281038252602281526020018061147e6022913960400191505060405180910390fd5b6000806000838152602001908152602001600020600601541161095d576040517f08c379a000000000000000000000000000000000000000000000000000000000815260040180806020018281038252601a8152602001807f436572746966696361746520646f6573206e6f7420657869737400000000000081525060200191505060405180910390fd5b600080600083815260200190815260200160002060070160006101000a81548160ff02191690831515021790555050565b6000602052806000526040600020600091509050806000018054600181600116156101000203166002900480601f016020809104026020016040519081016040528092919081815260200182805460018160011615610100020316600290048015610a3a5780601f10610a0f57610100808354040283529160200191610a3a565b820191906000526020600020905b815481529060010190602001808311610a1d57829003601f168201915b505050505090806001018054600181600116156101000203166002900480601f016020809104026020016040519081016040528092919081815260200182805460018160011615610100020316600290048015610ad85780601f10610aad57610100808354040283529160200191610ad8565b820191906000526020600020905b815481529060010190602001808311610abb57829003601f168201915b505050505090806002018054600181600116156101000203166002900480601f016020809104026020016040519081016040528092919081815260200182805460018160011615610100020316600290048015610b765780601f10610b4b57610100808354040283529160200191610b76565b820191906000526020600020905b815481529060010190602001808311610b5957829003601f168201915b505050505090806003018054600181600116156101000203166002900480601f016020809104026020016040519081016040528092919081815260200182805460018160011615610100020316600290048015610c145780601f10610be957610100808354040283529160200191610c14565b820191906000526020600020905b815481529060010190602001808311610bf757829003601f168201915b5050505050908060040154908060050154908060060154908060070160009054906101000a900460ff16905088565b6000600180549050905090565b600080600083815260200190815260200160002060070160009054906101000a900460ff168015610c965750600080600084815260200190815260200160002060060154115b9050919050565b600260009054906101000a900473ffffffffffffffffffffffffffffffffffffffff1673ffffffffffffffffffffffffffffffffffffffff163373ffffffffffffffffffffffffffffffffffffffff1614610d43576040517f08c379a000000000000000000000000000000000000000000000000000000000815260040180806020018281038252602281526020018061147e6022913960400191505060405180910390fd5b60008060008c81526020019081526020016000206006015414610dce576040517f08c379a000000000000000000000000000000000000000000000000000000000815260040180806020018281038252601a8152602001807f436572746966696361746520616c72656164792065786973747300000000000081525060200191505060405180910390fd5b6040518061010001604052808a8a8080601f016020809104026020016040519081016040528093929190818152602001838380828437600081840152601f19601f82011690508083019250505050505050815260200188888080601f016020809104026020016040519081016040528093929190818152602001838380828437600081840152601f19601f82011690508083019250505050505050815260200186868080601f016020809104026020016040519081016040528093929190818152602001838380828437600081840152601f19601f82011690508083019250505050505050815260200184848080601f016020809104026020016040519081016040528093929190818152602001838380828437600081840152601f19601f8201169050808301925050505050505081526020018281526020018b8152602001428152602001600115158152506000808c81526020019081526020016000206000820151816000019080519060200190610f499291906113d8565b506020820151816001019080519060200190610f669291906113d8565b506040820151816002019080519060200190610f839291906113d8565b506060820151816003019080519060200190610fa09291906113d8565b506080820151816004015560a0820151816005015560c0820151816006015560e08201518160070160006101000a81548160ff02191690831515021790555090505060018a9080600181540180825580915050906001820390600052602060002001600090919290919091505550897f8a44c34ee5af435653a77946f6d75954c9378a3531f3fc80e83e752503e163b88a8a8a8a6040518080602001806020018381038352878782818152602001925080828437600081840152601f19601f8201169050808301925050508381038252858582818152602001925080828437600081840152601f19601f820116905080830192505050965050505050505060405180910390a250505050505050505050565b600181815481106110bf57fe5b906000526020600020016000915090505481565b60608060608060008060008060008060008b81526020019081526020016000209050806000018160010182600201836003018460040154856005015486600601548760070160009054906101000a900460ff16878054600181600116156101000203166002900480601f0160208091040260200160405190810160405280929190818152602001828054600181600116156101000203166002900480156111bb5780601f10611190576101008083540402835291602001916111bb565b820191906000526020600020905b81548152906001019060200180831161119e57829003601f168201915b50505050509750868054600181600116156101000203166002900480601f0160208091040260200160405190810160405280929190818152602001828054600181600116156101000203166002900480156112575780601f1061122c57610100808354040283529160200191611257565b820191906000526020600020905b81548152906001019060200180831161123a57829003601f168201915b50505050509650858054600181600116156101000203166002900480601f0160208091040260200160405190810160405280929190818152602001828054600181600116156101000203166002900480156112f35780601f106112c8576101008083540402835291602001916112f3565b820191906000526020600020905b8154815290600101906020018083116112d657829003601f168201915b50505050509550848054600181600116156101000203166002900480601f01602080910402602001604051908101604052809291908181526020018280546001816001161561010002031660029004801561138f5780601f106113645761010080835404028352916020019161138f565b820191906000526020600020905b81548152906001019060200180831161137257829003601f168201915b505050505094509850985098509850985098509850985050919395975091939597565b600260009054906101000a900473ffffffffffffffffffffffffffffffffffffffff1681565b828054600181600116156101000203166002900490600052602060002090601f016020900481019282601f1061141957805160ff1916838001178555611447565b82800160010185558215611447579182015b8281111561144657825182559160200191906001019061142b565b5b5090506114549190611458565b5090565b61147a91905b8082111561147657600081600090555060010161145e565b5090565b9056fe4f6e6c792061646d696e2063616e20706572666f726d207468697320616374696f6ea265627a7a72315820992aa12413a299f94a46d9660562369aa19339e3eb21f6c1fe8511bf1feccdd164736f6c63430005100032",
  "source": "// SPDX-License-Identifier: MIT\r\npragma solidity ^0.5.0;\r\n\r\ncontract CertificateRegistry {\r\n    struct Certificate {\r\n        string studentName;\r\n        string rollNumber;\r\n        string course;\r\n        string institution;\r\n        uint256 yearOfPassing;\r\n        bytes32 documentHash;\r\n        uint256 timestamp;\r\n        bool isActive;\r\n    }\r\n    \r\n    mapping(bytes32 => Certificate) public certificates;\r\n    bytes32[] public certificateHashes;\r\n    address public admin;\r\n    \r\n    event CertificateStored(bytes32 indexed hash, string studentName, string rollNumber);\r\n    event CertificateVerified(bytes32 indexed hash, bool isValid);\r\n    \r\n    modifier onlyAdmin() {\r\n        require(msg.sender == admin, \"Only admin can perform this action\");\r\n        _;\r\n    }\r\n    \r\n    constructor() public {\r\n        admin = msg.sender;\r\n    }\r\n    \r\n    function storeCertificate(\r\n        bytes32 _hash,\r\n        string calldata _studentName,\r\n        string calldata _rollNumber,\r\n        string calldata _course,\r\n        string calldata _institution,\r\n        uint256 _yearOfPassing\r\n    ) external onlyAdmin {\r\n        require(certificates[_hash].timestamp == 0, \"Certificate already exists\");\r\n        \r\n        certificates[_hash] = Certificate({\r\n            studentName: _studentName,\r\n            rollNumber: _rollNumber,\r\n            course: _course,\r\n            institution: _institution,\r\n            yearOfPassing: _yearOfPassing,\r\n            documentHash: _hash,\r\n            timestamp: now,\r\n            isActive: true\r\n        });\r\n        \r\n        certificateHashes.push(_hash);\r\n        emit CertificateStored(_hash, _studentName, _rollNumber);\r\n    }\r\n    \r\n    function verifyCertificate(bytes32 _hash) external view returns (bool) {\r\n        return certificates[_hash].isActive && certificates[_hash].timestamp > 0;\r\n    }\r\n    \r\n    function getCertificate(bytes32 _hash) external view returns (\r\n        string memory studentName,\r\n        string memory rollNumber,\r\n        string memory course,\r\n        string memory institution,\r\n        uint256 yearOfPassing,\r\n        bytes32 documentHash,\r\n        uint256 timestamp,\r\n        bool isActive\r\n    ) {\r\n        Certificate storage cert = certificates[_hash];\r\n        return (\r\n            cert.studentName,\r\n            cert.rollNumber,\r\n            cert.course,\r\n            cert.institution,\r\n            cert.yearOfPassing,\r\n            cert.documentHash,\r\n            cert.timestamp,\r\n            cert.isActive\r\n        );\r\n    }\r\n    \r\n    function deactivateCertificate(bytes32 _hash) external onlyAdmin {\r\n        require(certificates[_hash].timestamp > 0, \"Certificate does not exist\");\r\n        certificates[_hash].isActive = false;\r\n    }\r\n    \r\n    function getTotalCertificates() external view returns (uint256) {\r\n        return certificateHashes.length;\r\n    }\r\n    \r\n    function getAllCertificateHashes() external view returns (bytes32[] memory) {\r\n        return certificateHashes;\r\n    }\r\n}",
  "sourcePath": "D:/docuVeri/backend/contracts/CertificateRegistry.sol",
  "compiler": {
    "name": "solc",
    "version": "0.5.16+commit.9c3226ce.Emscripten.clang"
  },
  "schemaVersion": "3.0.1",
  "updatedAt": "2025-09-25T22:20:25.135Z",
  "devdoc": {
    "methods": {}
  },
  "userdoc": {
    "methods": {}
  }
}